{
  "contractName": "Court",
  "abi": [
    {
      "inputs": [],
      "payable": false,
      "stateMutability": "nonpayable",
      "type": "constructor"
    },
    {
      "constant": false,
      "inputs": [
        {
          "internalType": "string",
          "name": "_courtId",
          "type": "string"
        },
        {
          "internalType": "string",
          "name": "_firstParty",
          "type": "string"
        },
        {
          "internalType": "string",
          "name": "_secondParty",
          "type": "string"
        },
        {
          "internalType": "string",
          "name": "_judge",
          "type": "string"
        },
        {
          "internalType": "string",
          "name": "_caseId",
          "type": "string"
        },
        {
          "internalType": "string",
          "name": "_caseDescription",
          "type": "string"
        },
        {
          "internalType": "string",
          "name": "_startDateTime",
          "type": "string"
        }
      ],
      "name": "registerCase",
      "outputs": [],
      "payable": false,
      "stateMutability": "nonpayable",
      "type": "function"
    },
    {
      "constant": false,
      "inputs": [
        {
          "internalType": "string",
          "name": "_caseId",
          "type": "string"
        },
        {
          "internalType": "string",
          "name": "_description",
          "type": "string"
        },
        {
          "internalType": "string",
          "name": "_fileHash",
          "type": "string"
        },
        {
          "internalType": "string",
          "name": "_evidenceType",
          "type": "string"
        },
        {
          "internalType": "string",
          "name": "_createdDateTime",
          "type": "string"
        }
      ],
      "name": "registerEvidence",
      "outputs": [],
      "payable": false,
      "stateMutability": "nonpayable",
      "type": "function"
    },
    {
      "constant": true,
      "inputs": [
        {
          "internalType": "string",
          "name": "caseId",
          "type": "string"
        }
      ],
      "name": "getCaseById",
      "outputs": [
        {
          "internalType": "string",
          "name": "",
          "type": "string"
        },
        {
          "internalType": "string",
          "name": "",
          "type": "string"
        },
        {
          "internalType": "string",
          "name": "",
          "type": "string"
        },
        {
          "internalType": "uint256",
          "name": "",
          "type": "uint256"
        }
      ],
      "payable": false,
      "stateMutability": "view",
      "type": "function"
    },
    {
      "constant": true,
      "inputs": [
        {
          "internalType": "string",
          "name": "caseId",
          "type": "string"
        },
        {
          "internalType": "uint256",
          "name": "evidenceId",
          "type": "uint256"
        }
      ],
      "name": "getEvidenceById",
      "outputs": [
        {
          "internalType": "string",
          "name": "",
          "type": "string"
        },
        {
          "internalType": "string",
          "name": "",
          "type": "string"
        },
        {
          "internalType": "string",
          "name": "",
          "type": "string"
        },
        {
          "internalType": "string",
          "name": "",
          "type": "string"
        }
      ],
      "payable": false,
      "stateMutability": "view",
      "type": "function"
    }
  ],
  "bytecode": "0x608060405234801561001057600080fd5b506119a7806100206000396000f3fe608060405234801561001057600080fd5b506004361061004c5760003560e01c8063100e3005146100515780632a18c9ee146102225780634393277414610462578063db1dbff814610779575b600080fd5b6100c86004803603602081101561006757600080fd5b810190808035906020019064010000000081111561008457600080fd5b82018360208201111561009657600080fd5b803590602001918460018302840111640100000000831117156100b857600080fd5b9091929391929390505050610bbe565b60405180806020018060200180602001858152602001848103845288818151815260200191508051906020019080838360005b838110156101165780820151818401526020810190506100fb565b50505050905090810190601f1680156101435780820380516001836020036101000a031916815260200191505b50848103835287818151815260200191508051906020019080838360005b8381101561017c578082015181840152602081019050610161565b50505050905090810190601f1680156101a95780820380516001836020036101000a031916815260200191505b50848103825286818151815260200191508051906020019080838360005b838110156101e25780820151818401526020810190506101c7565b50505050905090810190601f16801561020f5780820380516001836020036101000a031916815260200191505b5097505050505050505060405180910390f35b6102a36004803603604081101561023857600080fd5b810190808035906020019064010000000081111561025557600080fd5b82018360208201111561026757600080fd5b8035906020019184600183028401116401000000008311171561028957600080fd5b90919293919293908035906020019092919050505061116d565b6040518080602001806020018060200180602001858103855289818151815260200191508051906020019080838360005b838110156102ef5780820151818401526020810190506102d4565b50505050905090810190601f16801561031c5780820380516001836020036101000a031916815260200191505b50858103845288818151815260200191508051906020019080838360005b8381101561035557808201518184015260208101905061033a565b50505050905090810190601f1680156103825780820380516001836020036101000a031916815260200191505b50858103835287818151815260200191508051906020019080838360005b838110156103bb5780820151818401526020810190506103a0565b50505050905090810190601f1680156103e85780820380516001836020036101000a031916815260200191505b50858103825286818151815260200191508051906020019080838360005b83811015610421578082015181840152602081019050610406565b50505050905090810190601f16801561044e5780820380516001836020036101000a031916815260200191505b509850505050505050505060405180910390f35b610777600480360360a081101561047857600080fd5b810190808035906020019064010000000081111561049557600080fd5b8201836020820111156104a757600080fd5b803590602001918460018302840111640100000000831117156104c957600080fd5b91908080601f016020809104026020016040519081016040528093929190818152602001838380828437600081840152601f19601f8201169050808301925050505050505091929192908035906020019064010000000081111561052c57600080fd5b82018360208201111561053e57600080fd5b8035906020019184600183028401116401000000008311171561056057600080fd5b91908080601f016020809104026020016040519081016040528093929190818152602001838380828437600081840152601f19601f820116905080830192505050505050509192919290803590602001906401000000008111156105c357600080fd5b8201836020820111156105d557600080fd5b803590602001918460018302840111640100000000831117156105f757600080fd5b91908080601f016020809104026020016040519081016040528093929190818152602001838380828437600081840152601f19601f8201169050808301925050505050505091929192908035906020019064010000000081111561065a57600080fd5b82018360208201111561066c57600080fd5b8035906020019184600183028401116401000000008311171561068e57600080fd5b91908080601f016020809104026020016040519081016040528093929190818152602001838380828437600081840152601f19601f820116905080830192505050505050509192919290803590602001906401000000008111156106f157600080fd5b82018360208201111561070357600080fd5b8035906020019184600183028401116401000000008311171561072557600080fd5b91908080601f016020809104026020016040519081016040528093929190818152602001838380828437600081840152601f19601f8201169050808301925050505050505091929192905050506114dd565b005b610bbc600480360360e081101561078f57600080fd5b81019080803590602001906401000000008111156107ac57600080fd5b8201836020820111156107be57600080fd5b803590602001918460018302840111640100000000831117156107e057600080fd5b91908080601f016020809104026020016040519081016040528093929190818152602001838380828437600081840152601f19601f8201169050808301925050505050505091929192908035906020019064010000000081111561084357600080fd5b82018360208201111561085557600080fd5b8035906020019184600183028401116401000000008311171561087757600080fd5b91908080601f016020809104026020016040519081016040528093929190818152602001838380828437600081840152601f19601f820116905080830192505050505050509192919290803590602001906401000000008111156108da57600080fd5b8201836020820111156108ec57600080fd5b8035906020019184600183028401116401000000008311171561090e57600080fd5b91908080601f016020809104026020016040519081016040528093929190818152602001838380828437600081840152601f19601f8201169050808301925050505050505091929192908035906020019064010000000081111561097157600080fd5b82018360208201111561098357600080fd5b803590602001918460018302840111640100000000831117156109a557600080fd5b91908080601f016020809104026020016040519081016040528093929190818152602001838380828437600081840152601f19601f82011690508083019250505050505050919291929080359060200190640100000000811115610a0857600080fd5b820183602082011115610a1a57600080fd5b80359060200191846001830284011164010000000083111715610a3c57600080fd5b91908080601f016020809104026020016040519081016040528093929190818152602001838380828437600081840152601f19601f82011690508083019250505050505050919291929080359060200190640100000000811115610a9f57600080fd5b820183602082011115610ab157600080fd5b80359060200191846001830284011164010000000083111715610ad357600080fd5b91908080601f016020809104026020016040519081016040528093929190818152602001838380828437600081840152601f19601f82011690508083019250505050505050919291929080359060200190640100000000811115610b3657600080fd5b820183602082011115610b4857600080fd5b80359060200191846001830284011164010000000083111715610b6a57600080fd5b91908080601f016020809104026020016040519081016040528093929190818152602001838380828437600081840152601f19601f820116905080830192505050505050509192919290505050611684565b005b60608060606000808686604051808383808284378083019250505092505050908152602001604051809103902060090160009054906101000a900460ff16610c6e576040517f08c379a00000000000000000000000000000000000000000000000000000000081526004018080602001828103825260148152602001807f4e6f20737563682063617365206578697374732100000000000000000000000081525060200191505060405180910390fd5b610c76611833565b60008787604051808383808284378083019250505092505050908152602001604051809103902060405180610120016040529081600082018054600181600116156101000203166002900480601f016020809104026020016040519081016040528092919081815260200182805460018160011615610100020316600290048015610d425780601f10610d1757610100808354040283529160200191610d42565b820191906000526020600020905b815481529060010190602001808311610d2557829003601f168201915b50505050508152602001600182018054600181600116156101000203166002900480601f016020809104026020016040519081016040528092919081815260200182805460018160011615610100020316600290048015610de45780601f10610db957610100808354040283529160200191610de4565b820191906000526020600020905b815481529060010190602001808311610dc757829003601f168201915b50505050508152602001600282018054600181600116156101000203166002900480601f016020809104026020016040519081016040528092919081815260200182805460018160011615610100020316600290048015610e865780601f10610e5b57610100808354040283529160200191610e86565b820191906000526020600020905b815481529060010190602001808311610e6957829003601f168201915b50505050508152602001600382018054600181600116156101000203166002900480601f016020809104026020016040519081016040528092919081815260200182805460018160011615610100020316600290048015610f285780601f10610efd57610100808354040283529160200191610f28565b820191906000526020600020905b815481529060010190602001808311610f0b57829003601f168201915b50505050508152602001600482018054600181600116156101000203166002900480601f016020809104026020016040519081016040528092919081815260200182805460018160011615610100020316600290048015610fca5780601f10610f9f57610100808354040283529160200191610fca565b820191906000526020600020905b815481529060010190602001808311610fad57829003601f168201915b50505050508152602001600582018054600181600116156101000203166002900480601f01602080910402602001604051908101604052809291908181526020018280546001816001161561010002031660029004801561106c5780601f106110415761010080835404028352916020019161106c565b820191906000526020600020905b81548152906001019060200180831161104f57829003601f168201915b5050505050815260200160078201548152602001600882018054600181600116156101000203166002900480601f0160208091040260200160405190810160405280929190818152602001828054600181600116156101000203166002900480156111185780601f106110ed57610100808354040283529160200191611118565b820191906000526020600020905b8154815290600101906020018083116110fb57829003601f168201915b505050505081526020016009820160009054906101000a900460ff161515151581525050905080600001518160a001518260e001518360c0015183935082925081915094509450945094505092959194509250565b60608060608061117b611881565b60008888604051808383808284378083019250505092505050908152602001604051809103902060060160008781526020019081526020016000206040518060c0016040529081600082018054600181600116156101000203166002900480601f01602080910402602001604051908101604052809291908181526020018280546001816001161561010002031660029004801561125a5780601f1061122f5761010080835404028352916020019161125a565b820191906000526020600020905b81548152906001019060200180831161123d57829003601f168201915b50505050508152602001600182018054600181600116156101000203166002900480601f0160208091040260200160405190810160405280929190818152602001828054600181600116156101000203166002900480156112fc5780601f106112d1576101008083540402835291602001916112fc565b820191906000526020600020905b8154815290600101906020018083116112df57829003601f168201915b505050505081526020016002820160009054906101000a900473ffffffffffffffffffffffffffffffffffffffff1673ffffffffffffffffffffffffffffffffffffffff1673ffffffffffffffffffffffffffffffffffffffff168152602001600382018054600181600116156101000203166002900480601f0160208091040260200160405190810160405280929190818152602001828054600181600116156101000203166002900480156113f45780601f106113c9576101008083540402835291602001916113f4565b820191906000526020600020905b8154815290600101906020018083116113d757829003601f168201915b5050505050815260200160048201548152602001600582018054600181600116156101000203166002900480601f0160208091040260200160405190810160405280929190818152602001828054600181600116156101000203166002900480156114a05780601f10611475576101008083540402835291602001916114a0565b820191906000526020600020905b81548152906001019060200180831161148357829003601f168201915b50505050508152505090508060000151816020015182606001518360a0015183935082925081915080905094509450945094505093509350935093565b600080866040518082805190602001908083835b6020831061151457805182526020820191506020810190506020830392506114f1565b6001836020036101000a03801982511681845116808217855250505050505090500191505090815260200160405180910390209050611551611881565b6040518060c001604052808781526020018681526020013373ffffffffffffffffffffffffffffffffffffffff168152602001858152602001428152602001848152509050808260060160006001856007015401815260200190815260200160002060008201518160000190805190602001906115cf9291906118cd565b5060208201518160010190805190602001906115ec9291906118cd565b5060408201518160020160006101000a81548173ffffffffffffffffffffffffffffffffffffffff021916908373ffffffffffffffffffffffffffffffffffffffff16021790555060608201518160030190805190602001906116509291906118cd565b506080820151816004015560a08201518160050190805190602001906116779291906118cd565b5090505050505050505050565b60405180610120016040528088815260200187815260200186815260200185815260200184815260200183815260200160008152602001828152602001600115158152506000846040518082805190602001908083835b602083106116fe57805182526020820191506020810190506020830392506116db565b6001836020036101000a0380198251168184511680821785525050505050509050019150509081526020016040518091039020600082015181600001908051906020019061174d9291906118cd565b50602082015181600101908051906020019061176a9291906118cd565b5060408201518160020190805190602001906117879291906118cd565b5060608201518160030190805190602001906117a49291906118cd565b5060808201518160040190805190602001906117c19291906118cd565b5060a08201518160050190805190602001906117de9291906118cd565b5060c0820151816007015560e08201518160080190805190602001906118059291906118cd565b506101008201518160090160006101000a81548160ff02191690831515021790555090505050505050505050565b60405180610120016040528060608152602001606081526020016060815260200160608152602001606081526020016060815260200160008152602001606081526020016000151581525090565b6040518060c001604052806060815260200160608152602001600073ffffffffffffffffffffffffffffffffffffffff1681526020016060815260200160008152602001606081525090565b828054600181600116156101000203166002900490600052602060002090601f016020900481019282601f1061190e57805160ff191683800117855561193c565b8280016001018555821561193c579182015b8281111561193b578251825591602001919060010190611920565b5b509050611949919061194d565b5090565b61196f91905b8082111561196b576000816000905550600101611953565b5090565b9056fea265627a7a72315820f5c4586fab5a86b5cf8ac59dcfa998a13f4df325739bb4e4e0f76d698f6312fd64736f6c63430005100032",
  "source": "pragma solidity >=0.4.21;\r\n\r\ncontract Court\r\n{\r\n    struct Evidence{\r\n        string description;\r\n        string fileHash; // ipfs file hash to access the evidence media file\r\n        address owner; // the person who is uploading the evidence (one of either firstParty or the secondParty)\r\n        // string evidenceId;\r\n        string evidenceType; // 'documentary' / 'audio' / 'video'\r\n        uint timestamp; // uploaded to blockchain time\r\n        string createdDateTime; // 'ISO datetime string, tells evidence creation true time reported by party'\r\n    }\r\n\r\n    struct Case {\r\n        string courtId;\r\n        string firstParty;\r\n        string secondParty;\r\n        string judge;\r\n        string caseId;\r\n        string caseDescription;\r\n        mapping(uint => Evidence) evidences; // evidence[evidenceNum] = someEvidence\r\n        uint totalEvidences; // length of evidences\r\n        string startDateTime;\r\n        bool initialised;\r\n    }\r\n\r\n    mapping(string => Case) cases; // cases[caseId] = someCase;\r\n\r\n    constructor() public {}\r\n\r\n    function registerCase(\r\n        string memory _courtId,\r\n        string memory _firstParty,\r\n        string memory _secondParty,\r\n        string memory _judge,\r\n        string memory _caseId,\r\n        string memory _caseDescription,\r\n        string memory _startDateTime\r\n    ) public {\r\n        cases[_caseId] = Case({\r\n            courtId: _courtId,\r\n            firstParty: _firstParty,\r\n            secondParty: _secondParty,\r\n            judge: _judge,\r\n            caseId: _caseId,\r\n            caseDescription: _caseDescription,\r\n            totalEvidences: 0,\r\n            startDateTime: _startDateTime,\r\n            initialised: true\r\n        });\r\n    }\r\n\r\n    function registerEvidence(\r\n        string memory _caseId,\r\n        string memory _description,\r\n        string memory _fileHash,\r\n        string memory _evidenceType,\r\n        string memory _createdDateTime\r\n    ) public {\r\n        // require(\r\n        //     msg.sender == cases[_caseId].firstParty || msg.sender == cases[_caseId].secondParty,\r\n        //     \"You must be either of parties to register an evidence\"\r\n        // );\r\n        Case storage contextCase = cases[_caseId];\r\n        Evidence memory newEvidence = Evidence({\r\n            description: _description,\r\n            fileHash: _fileHash,\r\n            owner: msg.sender,\r\n            evidenceType: _evidenceType,\r\n            createdDateTime: _createdDateTime,\r\n            timestamp: now\r\n        });\r\n        contextCase.evidences[contextCase.totalEvidences + 1] = newEvidence;\r\n    }\r\n\r\n    function getCaseById(\r\n        string calldata caseId\r\n    ) view external returns (string memory, string memory, string memory, uint) {\r\n        require(cases[caseId].initialised, \"No such case exists!\");\r\n        Case memory reqcase = cases[caseId];\r\n        return (\r\n            reqcase.courtId,\r\n            reqcase.caseDescription,\r\n            reqcase.startDateTime,\r\n            reqcase.totalEvidences\r\n        );\r\n    }\r\n\r\n    function getEvidenceById(\r\n        string calldata caseId,\r\n        uint evidenceId\r\n    ) view external returns (string memory, string memory, string memory, string memory) {\r\n        Evidence memory evd = cases[caseId].evidences[evidenceId];\r\n        return (\r\n            evd.description,\r\n            evd.fileHash,\r\n            evd.evidenceType,\r\n            evd.createdDateTime\r\n        );\r\n    }\r\n\r\n    // function registerDetective() public returns (address) {\r\n    //     players.push(msg.sender);\r\n    //     return detective;\r\n    // }\r\n\r\n    // function registerForensic() public returns (address) {\r\n    //     players.push(msg.sender);\r\n    //     return forensic;\r\n    // }\r\n\r\n    // function getEvidence(uint _id) public view returns(string, uint, string, address, uint) {\r\n    //     Evidence memory evd = evds[_id];\r\n    //     return (\r\n    //         evd.description,\r\n    //         evd.caseNumber,\r\n    //         evd.hash,\r\n    //         evd.owner,\r\n    //         evd.timestamp\r\n    //     );\r\n    // }\r\n\r\n}\r\n",
  "sourcePath": "C:\\Users\\dhruv\\Documents\\BCT\\Evidence-Chain\\contracts\\Court.sol",
  "compiler": {
    "name": "solc",
    "version": "0.5.16+commit.9c3226ce.Emscripten.clang"
  },
  "schemaVersion": "3.4.16",
  "updatedAt": "2024-04-14T08:02:17.250Z",
  "devdoc": {
    "methods": {}
  },
  "userdoc": {
    "methods": {}
  }
}